:0400000005050505E8
:0400010005050505E7
:0400020005050505E6
:0400030005050505E5
:0400040005050505E4
:0400050005050505E3
:0400060005050505E2
:0400070005050505E1
:0400080005050505E0
:0400090005050505DF
:04000A0005050505DE
:04000B0005050505DD
:04000C0005050505DC
:04000D0005050505DB
:04000E0005050505DA
:04000F0005050505D9
:0400100005050505D8
:0400110005050505D7
:0400120005050505D6
:0400130005050505D5
:0400140005050505D4
:0400150005050505D3
:0400160005050505D2
:0400170005050505D1
:0400180005050505D0
:0400190005050505CF
:04001A0005050505CE
:04001B0005050505CD
:04001C0005050505CC
:04001D0005050505CB
:04001E0005050505CA
:04001F0005050505C9
:0400200005050505C8
:0400210005050505C7
:0400220005050505C6
:0400230005050505C5
:0400240005050505C4
:0400250005050505C3
:0400260005050505C2
:0400270005050505C1
:0400280005050505C0
:0400290005050505BF
:04002A0005050505BE
:04002B0005050505BD
:04002C0005050505BC
:04002D0005050505BB
:04002E0005050505BA
:04002F0005050505B9
:0400300005050505B8
:0400310005050505B7
:0400320005050505B6
:0400330005050505B5
:0400340005050505B4
:0400350005050505B3
:0400360005050505B2
:0400370005050505B1
:0400380005050505B0
:0400390005050505AF
:04003A0005050505AE
:04003B0005050505AD
:04003C0005050505AC
:04003D0005050505AB
:04003E0005050505AA
:04003F0005050505A9
:0400400005050505A8
:0400410005050505A7
:0400420005050505A6
:0400430005050505A5
:0400440005050505A4
:0400450005050505A3
:0400460005050505A2
:0400470005050505A1
:0400480005050505A0
:04004900050505059F
:04004A00050505059E
:04004B00050505059D
:04004C00050505059C
:04004D00050505059B
:04004E00050505059A
:04004F000505050599
:040050000505050598
:040051000505050597
:040052000505050596
:040053000505050595
:040054000505050594
:040055000505050593
:040056000505050592
:040057000505050591
:040058000505050590
:04005900050505058F
:04005A00050505058E
:04005B00050505058D
:04005C00050505058C
:04005D00050505058B
:04005E00050505058A
:04005F000505050589
:040060000505050588
:040061000505050587
:040062000505050586
:040063000505050585
:040064000505050584
:040065000505050583
:040066000505050582
:040067000505050581
:040068000505050580
:04006900050505057F
:04006A00050505057E
:04006B00050505057D
:04006C00050505057C
:04006D00050505057B
:04006E00050505057A
:04006F000505050579
:040070000505050578
:040071000505050577
:040072000505050576
:040073000505050575
:040074000505050574
:040075000505050573
:040076000505050572
:040077000505050571
:040078000505050570
:04007900050505056F
:04007A00050505056E
:04007B00050505056D
:04007C00050505056C
:04007D00050505056B
:04007E00050505056A
:04007F000505050569
:040080000505050568
:040081000505050567
:040082000505050566
:040083000505050565
:040084000505050564
:040085000505050563
:040086000505050562
:040087000505050561
:040088000505050560
:04008900050505055F
:04008A00050505055E
:04008B00050505055D
:04008C00050505055C
:04008D00050505055B
:04008E00050505055A
:04008F000505050559
:040090000505050558
:040091000505050557
:040092000505050556
:040093000505050555
:040094000505050554
:040095000505050553
:040096000505050552
:040097000505050551
:040098000505050550
:04009900050505054F
:04009A00050505054E
:04009B00050505054D
:04009C00050505054C
:04009D00050505054B
:04009E00050505054A
:04009F000505050549
:0400A0000505050548
:0400A1000505050547
:0400A2000505050546
:0400A3000505050545
:0400A4000505050544
:0400A5000505050543
:0400A6000505050542
:0400A7000505050541
:0400A8000505050540
:0400A900050505053F
:0400AA00050505053E
:0400AB00050505053D
:0400AC00050505053C
:0400AD00050505053B
:0400AE00050505053A
:0400AF000505050539
:0400B0000505050538
:0400B1000505050537
:0400B2000505050536
:0400B3000505050535
:0400B4000505050534
:0400B5000505050533
:0400B6000505050532
:0400B7000505050531
:0400B8000505050530
:0400B900050505052F
:0400BA00050505052E
:0400BB00050505052D
:0400BC00050505052C
:0400BD00050505052B
:0400BE00050505052A
:0400BF000505050529
:0400C0000505050528
:0400C1000505050527
:0400C2000505050526
:0400C3000505050525
:0400C4000505050524
:0400C5000505050523
:0400C6000505050522
:0400C7000505050521
:0400C8000505050520
:0400C900050505051F
:0400CA00050505051E
:0400CB00050505051D
:0400CC00050505051C
:0400CD00050505051B
:0400CE00050505051A
:0400CF000505050519
:0400D0000505050518
:0400D1000505050517
:0400D2000505050516
:0400D3000505050515
:0400D4000505050514
:0400D5000505050513
:0400D6000505050512
:0400D7000505050511
:0400D8000505050510
:0400D900050505050F
:0400DA00050505050E
:0400DB00050505050D
:0400DC00050505050C
:0400DD00050505050B
:00000001FF
